:020000040800F2
:10000000005000203D020008450200084702000899
:10001000490200084B0200084D02000800000000E1
:100020000000000000000000000000004F02000877
:1000300051020008000000005302000855020008A9
:10004000570200085702000857020008570200082C
:10005000570200085702000857020008570200081C
:10006000570200085702000857020008570200080C
:1000700057020008570200085702000857020008FC
:10008000570200085702000857020008CD44000834
:10009000D9440008570200085531000857020008EB
:1000A00057020008570200085702000857020008CC
:1000B00057020008570200085702000857020008BC
:1000C00057020008570200085702000857020008AC
:1000D000570200085702000857020008570200089C
:1000E00057020008570200085702000800F002F803
:1000F00000F096F80AA090E8000C82448344AAF12C
:100100000107DA4501D100F08BF8AFF2090EBAE829
:100110000F0013F0010F18BFFB1A43F0010318473B
:10012000CC870000EC870000103A24BF78C878C163
:10013000FAD8520724BF30C830C144BF04680C60ED
:10014000704700000023002400250026103A28BF35
:1001500078C1FBD8520728BF30C148BF0B60704739
:100160006E2900F09B86702900F07381662907F0E4
:100170007787652907F07487672907F071876129F8
:1001800007F0708703681B0A28BF41F080016929C6
:1001900000F04886642900F04586752900F0428603
:1001A0006F2900F09A87782900F03F81E92900F053
:1001B0003587E42900F03287F52900F02F87EF29F1
:1001C00000F09787F82900F03E810368DB0928BF1B
:1001D00041F08001632900F0A486732900F0A9860C
:1001E000E32901F0FF87F32902F004800020704723
:1001F0001FB59DE8030000F04DFD02F0BFFA0400BA
:100200000020002107F076FC401C606000200021E7
:1002100007F086FCE06001F017FB00F0FBFC1FBD5F
:1002200005F080FC114603B405F08CFC03BCFFF71D
:10023000DFFF02F085FF05F0C1FF000006488047A0
:1002400006480047FEE7FEE7FEE7FEE7FEE7FEE7BB
:10025000FEE7FEE7FEE7FEE749420008ED00000882
:1002600000487047B008002070B5064600F0F6FC64
:10027000056806F10B0020F00704B4429CBF002083
:1002800070BD2B466A68BAB11068A04210D304F161
:10029000080188423CBF5068586007D35168101964
:1002A00041601168091B016058601460101D70BD29
:1002B00013465268002AE7D12146284600F0D6FCB2
:1002C0000028DED170BD70B50446051F00F0C6FCE5
:1002D0000068002C14BF446870BD002C18BFAC42ED
:1002E0003CBF20466468F8D301680A18AA4218BFC8
:1002F000456003D12A680546114401602868411908
:10030000A1421CBF6C6070BD6168696021680844CF
:10031000286070BD7CB51D4616460C00009001D0CB
:100320002044401E074B7B442A46694601903046D4
:1003300000F0CDFD05461CB10020694600F0DAFD55
:1003400028467CBDD50B00000B460146184600F040
:10035000F5BD00000FB41CB5084B06AA7B446946E6
:100360000090059800F0B3FD04460020694600F0B7
:10037000C1FD20461CBC5DF814FB0000950B00007D
:1003800070B50C460546012A05D02878800600D5B0
:10039000EA69002302E0012305E05B1C934202D2DC
:1003A000E05C0028F9D1A869E618C01AA861286A9B
:1003B00018442862284600F0A3FC04E0D5E9012196
:1003C00014F8010B9047B442F8D3284600F0AEFC75
:1003D00070BD0000F0B40D460188090502D5214C1E
:1003E0007C4402E01F4C7C440E34002100F12406C2
:1003F00008E002F00F071209E75D42EA03721B09E9
:100400007754491C52EA0307F3D1027800231207FC
:1004100004D5702D06D009B1022311342246F0BC58
:1004200000F0A7BC01231034F8E770B504460D4670
:100430002146106800F094FC024629462046BDE89B
:1004400070400023C6E7D21D22F00703D3E9002342
:10045000C0E70368126843F0200303600823C36108
:100460000023B7E7EC7F00002DE9F05F89460446E2
:100470004FF0000ADFF874B1FB44C0F820A020461A
:10048000E1688847002874D0252806D0D4E90121E6
:100490009047206A401C2062F1E700265F46204614
:1004A000E16888472028054607DB312D05D27819F9
:1004B00010F8200C08B10643F1E7B00701D526F08B
:1004C0000406C4F81CA00027C4F818A02A2D09D0DF
:1004D000284605F02FFB38B304EB8708303DC8F8F9
:1004E000185019E059F8041B204604EB870291616B
:1004F000E1688847012F054618D1E069002820DA15
:1005000026F020061DE0D8F8180000EB800005EB6F
:1005100040003038C8F818002046E1688847054692
:1005200005F008FB0028EED1012F0AD02E2D08D1AE
:100530002046E16888477F1C0546022F46F02006CA
:10054000C4DBA069002803DA404246F00106A0613E
:10055000F00701D026F010066C2D0BD0682D09D0C5
:100560004C2D39D06A2D35D0742D35D07A2D33D01D
:1005700016E038E0E1682F4620468847B842054635
:1005800009D16C2F26D04FF48060E16806432046E5
:100590008847054604E06C2F1AD04FF4807006435C
:1005A0000DB3A5F14100192802D8203546F40066A4
:1005B0004A462946204626604E46FFF7D1FD80B1C7
:1005C00001280BD0F61D26F0070000F1080956E7B8
:1005D0004020E4E78020D8E70020D6E706F10409B0
:1005E0004DE7284652E7206ABDE8F09F7C7F000077
:1005F0000FB400B58DB010A9099000910B904FF089
:10060000FF300A9000200C90064878440690064877
:1006100078446A4607900F9909A800F089FD0DB04B
:100620005DF814FB430B00005B0B00002DE9FF5F3E
:100630001D464FF0FF3B91464FF000085F46D5E95D
:100640000146A96901987F1C8847296A8246884724
:100650000028F6D1BAF1FF3F0CD0002E24F4C0647C
:1006600019DD600614D5BAF12B0F09D0BAF12D0FA0
:100670000ED103E0584604B0BDE8F09F44F4806416
:10068000A96901987F1C8847761E8246002E02DDEC
:10069000BAF1300F03D0B9F1000F26D032E0A969CA
:1006A000761E01987F1C44F400748847002E824611
:1006B00005DDBAF1780F06D0BAF1580F03D0B9F1C1
:1006C000000F10D01EE0B9F1000F02D0B9F1100FE9
:1006D00018D1A969761E01987F1C24F400748847FC
:1006E0008246102002E0082000E00A20814609E04E
:1006F000A96908FB0908761E01987F1C44F4007460
:1007000088478246002E05DD4946504600F0FCFC35
:100710000028EDDAE96901988847A00502D46FF056
:100720000100A8E7E00725D1600613D5600502D5D2
:10073000C8F1000000E0404629680A1D2A600968E7
:10074000220501D5087015E0220701D5088011E0C7
:1007500008600FE02868011D29600068210502D5A6
:1007600080F8008006E0210702D5A0F8008001E0B3
:10077000C0F8008038467EE770B50646FFF770FD8A
:100780000468054630460A22002100F001FD2C6075
:1007900070BD000070B50446C068810713D08006A4
:1007A00001D5A56A04E0A169606808442169451A79
:1007B000204601F005F8002206462946204600F0B2
:1007C0002BFF304670BD002070BD70B510B1BDE884
:1007D0007040DFE70025074C6E1E07E02046FFF75C
:1007E000D9FF00B13546206D20F00104002CF5D171
:1007F000284670BDB40800202DE9F0410C4607469C
:100800001646104600F078F82078611C61280AD05E
:10081000722802D077283CD102E00125002405E0AF
:100820000225042402E0082448F2020511F8010B15
:100830002B2806D0622809D011F8010C74280AD0A0
:100840000BE045F0030544F00204EFE745F0040532
:1008500044F00104EAE744F010043846214605F06C
:10086000EBF9411C15D00021316171604FF400712A
:10087000F560F1617061200704D530460222002145
:1008800000F0CAFE306D40F0010030653046BDE832
:10089000F0810020FBE72DE9F0410D460646104CA3
:1008A000206DC10704D0410804D020F00104F7E70F
:1008B00022460EE05420FFF7D7FC07000ED0206D33
:1008C00047F00101084354212065384600F010F933
:1008D0003A4629463046BDE8F0418DE70020D6E78C
:1008E000B408002011B14FF4807201E04FF480622F
:1008F0004FF4007300F00CBF2DE9F04704464FF0B1
:1009000000094FF0FF37C568D4E90486A80707D06F
:10091000204600F055FF304605F022F9002802DAA3
:100920003846BDE8F087280502D54046FFF7CBFCE6
:100930004C21204600F0DCF8206D20F001002065FD
:100940004846EEE7401ECAB210F8011F8A4202D0A4
:100950000029F9D10020704740EA0103024630B572
:100960009B0710D14FF0013400E008C208C91D1BDD
:100970009D4315EAC41FF8D013F0FF0102F8011BD4
:100980000DD01B0AF8E711F8013B002B02F8013BE0
:1009900005D011F8013B002B02F8013BF3D130BD2B
:1009A00010B5431C02E010F8011B71B18107FAD1A8
:1009B0004FF0013202C88C1A8C4314EAC211F9D0EC
:1009C000C01A0A0603D0C01E10BDC01A10BD0A040A
:1009D00001D0801E10BD0902FCD0401E10BD40EAAF
:1009E000010370B59B072ED14FF00136042A2AD39C
:1009F00008C810C99D1B9D43121F15EAC61517D0C4
:100A0000D8B2E1B2401A50EA056110D198B2A1B251
:100A1000401A50EA05410AD123F07F4024F07F417B
:100A2000401A50EA052102D1180EA0EB146070BDE7
:100A3000A342DBD018BA21BA884201D9012070BD87
:100A40004FF0FF3070BD0AB9002070BD10F8013BB7
:100A500011F8014B63B1A3420AD1521E08D010F81D
:100A6000013B11F8014B1BB1A34201D1521EEDD144
:100A7000181B70BD421E12F8013F002BFBD111F86C
:100A8000013B002B02F8013BF9D1704710B5203A29
:100A9000C0F00B80B1E81850203AA0E81850B1E837
:100AA0001850A0E81850BFF4F5AF5FEA027C24BFED
:100AB000B1E81850A0E8185044BF18C918C0BDE8E4
:100AC00010405FEA827C24BF51F8043B40F8043BAD
:100AD00008BF7047D20728BF31F8023B48BF11F862
:100AE000012B28BF20F8023B48BF00F8012B7047BC
:100AF0004FF0000200B5134694469646203922BFB7
:100B0000A0E80C50A0E80C50B1F12001BFF4F7AF01
:100B1000090728BFA0E80C5048BF0CC05DF804EBE3
:100B2000890028BF40F8042B08BF704748BF20F851
:100B3000022B11F0804F18BF00F8012B704710B541
:100B4000044610F0030F08BF11F0030F40F01580AA
:100B50004FF0013E121FC0F20E8051F8043BA3EB90
:100B60000E0C2CEA030C1CEACE1C08BF40F8043B18
:100B7000F0D0A1F1040102F10402521E08DB11F8C9
:100B8000013B002B00F8013BF7D1114600F0FFFEBE
:100B9000204610BD4FF0013C50F8042B51F8043BA7
:100BA0009A4221D1A2EB0C03934313EACC1317D141
:100BB00050F8042B51F8043B9A4215D1A2EB0C03D8
:100BC000934313EACC130BD150F8042B51F8043B98
:100BD0009A4209D1A2EB0C03934313EACC13DBD066
:100BE0004FF00000704700BFD01A01BAB1FA81F18E
:100BF00001F0180122FA01F0CB40C1F12001DBB273
:100C0000C0B2C01A2CFA01F3D11A914311EAC311F0
:100C1000E6D1704770B5064C7C44064D7D4403E038
:100C2000206820448047241DAC42F9D170BD0000EB
:100C30001C7E00001C7E00002DE9F04117460E4688
:100C4000054633B107FB0354E41B2046B047A542D9
:100C5000FAD1A5F10800BDE8F08100000048704716
:100C6000B0090020704770477047704738B5044698
:100C70000A460020694601F05EFD002808BF38BD25
:100C800002460099204600F0ADFE012038BD01204B
:100C900001F026BDF8B501F043FD054600200C46E5
:100CA000102000BF0646A819A0420DD93246694659
:100CB000002001F040FD070008BF01F011FD009881
:100CC000A04218BF0546C419FFF7C8FF05600746D4
:100CD000F01D20F007004619284600F00AF8B4423B
:100CE00008BFF8BDA21B31463868BDE8F84000F0E7
:100CF00079BE00210160C0E90110704710207047E3
:100D000070B5044685690068C10601D5302600E04B
:100D10002026C00707D070BDD4E901213046904796
:100D2000206A401C20626D1EF6D570BD70B5044669
:100D300085690078C00707D170BDD4E90121202062
:100D40009047206A401C20626D1EF6D570BD096870
:100D50004A0501D540B27047C905FCD500B27047BD
:100D600009684A0501D5C0B27047C905FCD580B2F3
:100D700070472DE9F0470D4699469246044600F12A
:100D800024080168880604D5E06921F0100121607B
:100D900000E00120A84201DD471B00E00027A16917
:100DA0007A1902EB0900081AA0612078C00602D463
:100DB0002046FFF7A5FF002608E0D4E901211AF834
:100DC00006009047206A401C761C20624E45F4DBEA
:100DD0002078C0060AD52046FFF792FF06E0D4E946
:100DE000012130209047206A401C2062381EA7F164
:100DF0000107F4DC07E0D4E9012118F80500904769
:100E0000206A401C2062281EA5F10105F3DC204663
:100E1000FFF78CFF2078000602D50220BDE8F0879E
:100E20000120FBE72DE9F0410646002410687529F2
:100E3000314616A510D0FFF78AFF002802DA40429B
:100E400013A507E031688A0701D512A502E049071A
:100E500004D511A5012401E0FFF782FF00210A2239
:100E600006F1240709E0B0FBF2FCB0FBF2F302FB51
:100E70001C00303078541846491C0028F3D1234612
:100E80002A463046BDE8F041FFF773BF000000007E
:100E90002D0000002B0000002000000011680268F7
:100EA000006A530501D508700AE0D30501D5088012
:100EB00006E0130603D5C217C1E9000200E008608E
:100EC0000120704701694A1C02610878704700B52B
:100ED0008FB0CDE901310021059105497944CDE973
:100EE000031011466846FFF7BFFA0FB000BD0000BF
:100EF000E5FFFFFF0A6802F8010B0A607047D1E9BD
:100F000000239A4202D2531C0B601070704710B538
:100F1000436913B1AFF3008001E0FFF731FA01201C
:100F200010BD127800F124010A7000224A700122DB
:100F3000EDE711684FF0FF32E9E70000074B70B5AD
:100F40000D467B44FFF7C3FF0446284600F058F9DE
:100F500010B14FF0FF3070BD204670BDAF520000A1
:100F60002DE9FF5F15468A460446DFF8AC80F84459
:100F70000027D8E900103E46CDE9001010E03AF80D
:100F800016106A4602A801F07FFB411C07D02178A9
:100F9000890603D5E269391891420DD80744761CB9
:100FA0002078800602D5E069B84205DDAE42E6DB76
:100FB0003AF816000028E2D1A069C01BA0612046C3
:100FC000FFF79EFED8E90010CDE90010002017E0E1
:100FD0003AF818106A4602A801F056FBB0F1FF3F3C
:100FE00081460BD000250DF1080B05E0D4E9012165
:100FF0001BF8050090476D1C4D45F7D308F1010023
:10100000B0428046E4DB206A384420622046FFF785
:101010008DFEBDE8FF9F00009A7400002DE9F041AD
:101020008046D21D22F007020025D2E90002F529F0
:1010300015A614D0011E72F1000106DA0023D0EBD0
:10104000030063EB020211A608E0D8F800108B073A
:1010500001D50FA602E0490701D50EA601251146CC
:10106000002408F1240704E000F0D6FC30323A55A1
:10107000641C50EA0102F7D12B4632462146404615
:10108000BDE8F041FFF775BE000000002D00000034
:101090002B0000002000000030B4002100F12404E7
:1010A00008E002F00705D208303542EA4372DB0857
:1010B0006554491C52EA0305F3D10468002310A2C9
:1010C000250707D5A40600D421B1C46901230DA2C8
:1010D000641EC46130BCFFF74CBE10B50446214607
:1010E0001068FFF73DFE02462046BDE81040002391
:1010F000D2E7D21D22F00701D1E90023CCE700009E
:1011000000000000300000003A2800D2303820F003
:101110002002412A01D3A2F13700884201D34FF0C7
:10112000FF30704702681144137801601846704719
:10113000D160054979445161044979441162002123
:101140001161114601F05AB8EDFFFFFF650900007B
:10115000426842B1016811F8013B23B1521EC0E957
:101160000012184670470121C160881E704742680E
:101170005AB1C368016843B983688B4205D0491EE0
:10118000521CC0E90012002070474FF0FF3070473A
:101190002DE9F04791460F4680460446002614F894
:1011A000015B2DB100F016FC0068405DC007F6D170
:1011B0002B2D02D02D2D18D0641E4A4639462046CC
:1011C00001F0D6F927B13968A14201D1C7F80080F2
:1011D0004FF0020471050BD54042002803DDFFF7F4
:1011E0003FF80460A007BDE8F08746F48066E4E7B6
:1011F0000028F8DAFFF734F804606FF00040F2E7F7
:10120000007B00F08000704770B50D460146144623
:10121000D36850692A4604F019FE002807DA411CF9
:1012200007D0E16820F0004041F48041E160281AD5
:1012300070BD204600F090FA4FF0FF3070BDC168DD
:101240000022026021F4805141F0400111F4C06F8E
:10125000C16001D08260704702694168891AC26921
:10126000891A816070472DE9F0470446C06840F450
:101270008000E060010312D520F40020E0608106C8
:1012800006D4E26A61688A4200D80A46511A21608F
:1012900040F40010E06094F82500BDE8F08720F4E9
:1012A0000010E060800602D5204600F0ACFAE0684D
:1012B00042F281014FF0FF390140012903D020465D
:1012C00000F04AFAB6E02168002600290ADAC9438C
:1012D00040F480502160C4E902606068411C616094
:1012E0000078DAE744F2400108420CD020F4A04034
:1012F00040F040002660E06021696068401AE169C2
:10130000401AA06096E0216991B9C00310D4E06949
:10131000FEF7AAFF2061B0B1E06840F4006010F46D
:10132000407FE06002D140F48070E060206960603E
:10133000E068D4F814A0C1061AD5C0030ED5204623
:1013400000F03EFA14E004F1240020610120E06185
:10135000E06820F4407040F48060E6E7216960684E
:10136000401AA1690144504604F0A8FD0028A6DBFC
:10137000E068C0032AD56168E06A884200D8084660
:101380002169451AE069471B1BD02046D4F8188014
:1013900000F016FA08EB05015046C4F8188004F076
:1013A0008DFD00288BDBE06840F40030E060000237
:1013B00002D5A0692844A061E1692069C91B4518CC
:1013C0000DE0204600F0FCF9E769F5E72569616862
:1013D000D4E90607491BE56208446560A061E0683E
:1013E00020F0100010F4C06FE06002D0204601F041
:1013F0002FF9E06840F48050C4E90260000205D58E
:101400002069E06260606FF0010046E722463946DD
:101410002846FFF7F9FE411C0CD02918E16258B1AB
:10142000401E2060681C6060E06840F40030E060AE
:10143000287832E7484630E765602046FFF7FFFE30
:10144000F8E72DE9F04705460C46C86820F420105F
:1014500040F48000C860800602D5084600F0D3F949
:10146000E06841F282014FF0FF390140022903D0C8
:10147000204600F071F9B5E000F42041B1F5004FCD
:101480000FD1C00306D56168E06A884200D80846DB
:10149000606006E02069E0626060606904F086FBDD
:1014A000A061A0680022EEB200280DDAE1688B0589
:1014B0000AD4C043A06041F490302260E0606068CC
:1014C000411C61600670A5E0E0689046226040F42F
:1014D0000050E060206968BB606904F08DFB012763
:1014E00004F12405A0B1A08910F4407F08D0E06980
:1014F000FEF7BAFE206118B1E06840F4006016E023
:10150000E7612561E06820F4407040F480600EE0FF
:10151000E069FEF7A9FE00282061F1D0E06840F400
:10152000006010F4407FE06002D140F48070E06021
:1015300020696060E06825696FF0010AC1051FD568
:101540006168E06A884200D80846411B04D0224600
:10155000284600F00BF9F0BBE068010203D5E56214
:10156000C4E9015854E0691CE1626160E16940F43A
:101570008030491EC4E9021030462E70BDE8F08765
:10158000010202D500F480320AE06068411C61600B
:101590000670E0680A2E40F48030E06006D0002239
:1015A000E16A6068814203D90B4602E00122F7E755
:1015B0000346A7895B1B7F0503D4E7699F4200DDD3
:1015C000E2B1814200D80146E5620F1AC4E9015830
:1015D000002B09DD00E005E022461946284600F010
:1015E000C5F808B14846C9E747B1A069E56265603A
:1015F000C01BA061E06840F01000E060E0680002FD
:1016000008D56168A069E562491B08446560A0616E
:101610005046B3E73046B1E72DE9F041044616469F
:101620000D464769007B80072ED0384604F0E4FA67
:1016300050BB3EB3012E02D0022E25D104E020463D
:1016400000F0E5FF05441DE0384604F0AFFAE1681C
:10165000002841F01001E16005DA204600F07CF836
:101660000120BDE8F081C9030BD56268E16A9142AF
:1016700000D81146A26911442269891A814200DD0D
:1016800008460544002D01DA0220EAE7E16A6068B5
:10169000E268814206D29103E06203D522F4003170
:1016A00041F01002A6690027AE4213DCE16A8142D4
:1016B00001D90B4600E0034603EB060C2369ACEBB3
:1016C000030CAC4506DD814201D98C4600E084461E
:1016D0009C4505D1A760276042F02000A5620DE07F
:1016E000AD1BE669AE1B8142A66000D90846C01A50
:1016F000281A20605819606022F020000349084031
:10170000E060002084F84870ABE70000BFCFD7FF4F
:1017100070B5C468A50713D0650211D4B2F5807FF7
:1017200009D0B2F5007F06D0B2F5806F08D1012351
:1017300000F1240106E05D1E6FF07F46B54201D343
:10174000012070BD0161C361416024F470611143E7
:10175000C160002070BD0000C16821F4001141F09B
:101760008001C16000218160016070472DE9F04770
:10177000814614460E464FF0FF383248D568576907
:10178000054209D03846A16904F098FB002811DB16
:101790002C48C0430540E5602B4632464946384652
:1017A00004F0B4FBA16920F00042B21A11440028F1
:1017B000A16103D02046FFF7CFFF4046BDE8F08788
:1017C00070B504460569C06A6168884200D8084659
:1017D000E16821F42011E160C90312D5A84208D0C4
:1017E0002246411B2846FFF7C1FF10B14FF0FF30E2
:1017F00070BD0020E562C4E90150E06820F480304B
:10180000E060002070BD10B50446C06820F02000E4
:10181000E060A16AA06988420DD02046FFF7D0FFA2
:10182000E06820F4405040F01000E060A06AA06141
:101830002069E062606044F24001E0688843E06053
:1018400010BD00001000020010B542485421FFF7FF
:101850004FF941485421FFF74BF940485421FFF715
:1018600047F93F493B483C4A3F4B08603D490A60C5
:101870003A491960531C0365481C1065012008652E
:101880003B48344A39A17844FEF7B6FF20B93848BE
:1018900078440A3800F01DFF37482F4A35A17844B4
:1018A000FEF7AAFF20B9344878440A3800F011FF47
:1018B00032482A4A2FA17844FEF79EFF20B92F48CC
:1018C00078440A3800F005FF40232248DC0000215C
:1018D0002246FFF71DFF20B125487844543800F018
:1018E000F8FE1D48224640230021FFF711FF20B1DA
:1018F00021487844543800F0ECFE18482246102362
:101900000021FFF705FF002806D01C487844BDE8F9
:101910001040563800F0DDBE10BD104870B5006DA7
:1019200020F001040B48FEF7E7FF0B48FEF7E4FF49
:101930000A48FEF7E1FF09E0206D20F0010520468E
:10194000FEF7DAFF2046FEF7BEFC2C46002CF3D152
:1019500070BD0000B4080020080900205C090020C8
:1019600054010020580100205C010020720000009A
:10197000C668000077000000B5680000A568000098
:1019800010B500F0B5FEBDE8104000F09DBE4FF070
:1019900000020429C0F0128010F0030C3FF4AAA842
:1019A000CCF1040CBCF1020F18BF00F8012BA8BF4A
:1019B00020F8022BA1EB0C01FFF79CB85FEAC17C79
:1019C00024BF00F8012B00F8012B48BF00F8012BC1
:1019D0007047000010B500F0D1FE001D10BD00BF23
:1019E00015610000034640688C46002818BF8842F5
:1019F0003CBF03464068F8D318681844884207D0B3
:101A00000CF1030020F00700001D411A521A014694
:101A1000081D0A60FEF757BC30B5B0F10A024FEA64
:101A2000900E71F100034EEA817EB0EB0E0061EB87
:101A300091014FEA101E4EEA017E10EB0E0041EBC1
:101A400011114FEA102E4EEA016E10EB0E0041EB21
:101A500011214FEA104E4EEA014E10EB0E0041EB01
:101A60001141401841F100014FEAD00040EA4170B5
:101A70004FEAD10110EB80054FEA810444EA9074EB
:101A800044EB01046D1944EB0404521BA3414FF0D5
:101A9000000348BF0A3200D530BD401C41F10001AF
:101AA00030BD10B50446FFF795FF0068005D00F0FB
:101AB000010010BD70472DE9FF4F0C461E464FF048
:101AC000FF378BB0D2E90001DDF860800A908A46CA
:101AD000C1F30A5505B93D46002108464FF0000004
:101AE000BAF1000F00F4400005DA00EB80004FF47B
:101AF000400101EA50004FEA9059B9F1010F00DDB1
:101B0000B9460A9850EA4A000ED044F61050A5F2A1
:101B1000FF3545432F14B8F1000F1ED07542291E22
:101B20001EDDC9F100021CE0B8F1010F4FF000000A
:101B300001D0302103E0F24305E02154401CB042C3
:101B4000FBDB30460022002121540B99C1F80880AC
:101B5000C1E900200FB0BDE8F08FBD1B6D1CDEE7B2
:101B60004A4600DA694206A800F04CFE06AB93E84C
:101B7000070003AB83E8070050460A9900F018FFFE
:101B80008DE80700A0F500501F3800900398002D45
:101B90000ADD42F21F014A460844002303A90390CC
:101BA000684601F081F909E0A0F500504A461F3867
:101BB000002303A90390684601F08BF98DE8070024
:101BC0000004000C03D04FF0FF30410800E0104645
:101BD000B8F1000F03D00022009215461EE0751EDA
:101BE00005D4FFF719FF303262556D1EF9D5B346A3
:101BF0000122084302D000227F1C04E02078302814
:101C000001D100227F1E002A099784D01DE0112DEA
:101C100007DAFFF701FF303262556D1C50EA01020E
:101C2000F5D1084302D00098C8B10EE00021681E2B
:101C300005E0235C625C63542254401E491C8142CF
:101C4000F7DBAB46A81B401E0990002004F80B00F0
:101C50000B98099AC0F80880C0E9002B7AE7112692
:101C60004FF0000857E72DE9F04F88460446D21D93
:101C700022F0070191B0D1E90001CDE90A0103F09A
:101C8000CDFE02460B98C00F01D02D2007E0206842
:101C9000810701D52B2002E0202101EAC000032AA0
:101CA000099001D0072A05DB03464146204600F093
:101CB00069FD0BE12078800601D5E06900E006208F
:101CC000B8F1650F814606D0B8F1660F18D0B8F1AB
:101CD000670F70D131E00020B9F1110F009001DBE6
:101CE000112301E009F101030AAA01A90CA8FFF7D9
:101CF000E2FEDDE90C70002609F10105834647E0AC
:101D000001204B4600904FF000470AAA01A90CA8F9
:101D1000FFF7D1FEDDE90DB00C995D46002610B944
:101D200009F101000D18B9EB050003D4C0F1FF362D
:101D300009F10105A5EB09002BE0B9F1010F01DA6A
:101D40004FF001090020B9F1110F0090484601DD64
:101D5000112300E003460AAA01A90CA8FFF7ABFE75
:101D6000DDE90C704D4600268346207800070AD432
:101D7000AB4500DA5D4601A8012D04DD411911F8DB
:101D8000011C302907D04F4502DA17F1040F04DA9D
:101D9000012082460FE06D1EEEE7002F02DCED1BF6
:101DA0003E4403E0781CA84200DD7D1CB81B00F116
:101DB000010A4FF000472078000703D4AA4501DB51
:101DC0004FF0FF3A0021B7F1004F0DF143088DF8B5
:101DD000431024D002202B23002F01DA7F422D2331
:101DE0000A21021EA0F1010000DC5FB197FBF1FCAB
:101DF00097FBF1F201FB1C7C17460CF1300C08F844
:101E000001CDEEE7A8F1010003702188090501D595
:101E1000452100E06521A0F1010800F8011C0998A6
:101E20000FA9A1EB0807FF1D00B10120411901EB2B
:101E3000EA70A1693844081A401EA0612078C006E3
:101E400002D42046FEF75CFF099828B1D4E90121AD
:101E50009047206A401C20622078C00622D5204688
:101E6000FEF74EFF1EE0002E04DBB34502DD01A8A5
:101E7000805D00E03020D4E901219047206A401CB9
:101E80002062761CAAF101005FEA000A0AD100F084
:101E900075FCC0680168405CD4E901219047206A64
:101EA000401C2062281EA5F10105DCDC07E0D4E916
:101EB000012118F8010B9047206A401C2062381E4F
:101EC000A7F10107F3DC2046FEF730FF032011B035
:101ED00041E600002DE9F04F04460D46D21D22F0E8
:101EE000070089B0D0E900974846394603F096FDCF
:101EF0000246F80F01D02D2307E02068810701D5A5
:101F00002B2302E0202101EAC0038DF820300BB121
:101F1000012000E00020032A824601D0072A04DBCA
:101F20002946204600F02EFC3FE12078800601D4AF
:101F30000D2500E0E569C7F30A560D2D49DA0021A9
:101F40004FEA175B08464FF00000002F00F44000F6
:101F500007DA00EB80004FF4400100EBD07001EA9B
:101F600060008115012901DD4FF0FF3100224FEAA9
:101F7000850CBCF1180F06D31346ACF118004FF0D6
:101F80008052C24003E04FF4801323FA0CF30CF1AB
:101F90000C0CBCF1200F04D3ACF1200C09FA0CF0AE
:101FA00001E007FA0CF000294FF0004801DD18B9F4
:101FB0000FE00ED140450CD319EB02095F4121B966
:101FC000404502D19F4329EA0209BBEB175F00D0CD
:101FD000761C2088000502D57B48784402E07A48C8
:101FE0007844193808AA302302F80A30037C0AF131
:101FF0000101002E0AF1020A53546A4602DC4FF036
:10200000300101E04FF031014FF001088DF8001070
:1020100002D0A6F2FF3603E059EA470100D06B4E2A
:10202000002D02DC2178090704D54FF002082E218B
:102030008DF80110C44600210BE0C7F303433F01B4
:10204000C35C491C6D1E02F80830052908F101081F
:1020500001DA002DF1DC00210CE000EB1973491CC2
:102060001B786D1E082902F808304FEA091908F19B
:10207000010801DA002DF0DC21688B0602D516E09C
:10208000A8F10108E04505DD02EB080313F8013C67
:10209000302BF5D0B8F1000F09DD02EB080313F87F
:1020A000013C2E2B03D1090701D4A8F10108002D12
:1020B00005DD3E2102F808106D1E08F10108407C84
:1020C000002E02F8080008F1010804DA2D207642FB
:1020D00002F8080002E02B2002F808000A214FF461
:1020E0007A70864208F101080BDB96FBF0F330337F
:1020F00002F8083096FBF0F308F1010800FB1366C4
:1021000001E0642E0CDB642096FBF0F3303302F820
:10211000083096FBF0F308F1010800FB136601E0BC
:102120000A2E06DB96FBF1F0303002F8080008F1C9
:10213000010896FBF1F001FB1060303002F8080056
:10214000A16908F1010808EB050202EB0A00081A70
:10215000A0612078C00602D42046FEF7D1FD216A96
:1021600008AE01EB0A00206204E0D4E9012116F870
:10217000010B9047BAF1010AF7D22078C00602D5C8
:102180002046FEF7BDFD6E4609E016F8010B3E281D
:102190000FD0D4E901219047206A401C2062B8F199
:1021A0000108F2D22046FEF7C1FD09B00320BDE8C8
:1021B000F08F206A2844206203E0D4E90121302016
:1021C00090476D1EEBD3F8E74964000002FCFFFF67
:1021D00010B5436913B1AFF3008001E0FEF7C0FE14
:1021E000012010BD128800F1240182840022C284E3
:1021F0000122EDE711684FF0FF32E9E72DE9F34FD7
:102200004FF0000A0C4656468DB001200C9001F1AB
:102210000C000B9062690B9801219047051E2DD090
:10222000252D2CD0216A8847C0B162690B98012105
:102230009047216A88470028F7D16269411E0B98B0
:10224000904700E0761CA1690D988847216A88476D
:102250000028F7D1E1690D988847DBE7A1690D985F
:102260008847A842074601D1761CD3E7E1690D985B
:1022700088477F1C02D1BAF1000F6FD06BE1626911
:102280000B9800273D46394690472A2804D16269B9
:102290000B98012190470125DFF8D08262690B98E5
:1022A00001219047A0F130010A290AD24745E5DC17
:1022B00007EB870100EB4107303FDFD445F0100505
:1022C000ECE7E90601D46FF000476C280AD04C28EF
:1022D00014D0682815D06A280DD074281CD07A280C
:1022E0001AD01DE062690B98012190476C2802D03A
:1022F00045F0040514E045F002050DE045F0200529
:102300000AE062690B9801219047682802D045F0E5
:10231000080505E045F4006562690B9801219047C6
:10232000C4E9015765283DD019DC58287AD00CDC67
:10233000452837D004DC252826D041289ED131E01D
:1023400046282FD0472899D12CE05B2877D06128E8
:1023500028D063287CD0642823D15AE0F6E06F2887
:1023600048D008DC66281DD067281BD0692821D0FA
:102370006E2816D127E0702845D0732868D07528BC
:1023800047D078280DD14DE0A1690D9888472528C0
:1023900005463FF469AFE1690D9888476D1C3FF42D
:1023A0006AAFD8E00D9923466A466FF00100AFF39B
:1023B0000080C5E045F0400023464FF00002606019
:1023C000A80736D43EE0E8077FF447AF2068011D38
:1023D00021600068290501D506701BE7290701D592
:1023E000068017E7A90703D5F117C0E9006111E7D7
:1023F00006600FE745F0400023464FF0080260609A
:10240000A80716D41EE040F60E0125EA0100606020
:1024100016E045F0400023464FF00A026060A8072E
:1024200007D40FE045F040006060A80708D52346B8
:1024300010220D996FF00100AFF3008080E007E0FB
:10244000102223460D996FF00100FEF7EFF877E0B8
:102450004FF0000963284F46C8464B46CB4602D092
:102460005B2806D038E0E80601D40120A0600127EF
:1024700032E06269D4F80CB00B98012190475E28D5
:1024800007D14FF0010949466269D4F80CB00B98A6
:102490009047216939B900210A4603AB43F821204E
:1024A000491C0829FADBD8B3216949B308F10108AE
:1024B00062690B98012190475D28F4D1B9F1000FB2
:1024C00009D0002003A951F82020D24341F8202050
:1024D000401C0828F7DB03AB2069002820794FEA6D
:1024E00040701ED05B462246CDF80080CDE90197B2
:1024F0000D9900286FF0010020DAAFF300801FE093
:10250000C11703AA00EBD1614B1121F01F0102EBAF
:102510008302411A13680120884003431360C7E710
:1025200019E00D99224600286FF00100009702DAA9
:10253000AFF3008004E0AFF3008001E0AFF3008070
:1025400000280ADA401C06D10C9820B14FF0FF3069
:102550000FB0BDE8F08F5046FAE7E90701D10AF164
:10256000010A064400200C9054E60000CCCCCC0CB0
:102570002DE9F05F824615468B4600270AF10104DB
:10258000B9460078302801D09DB113E014F8010B52
:102590000127782803D0582801D045B10AE00DB1B1
:1025A000102D07D1002714F8010B102502E0082593
:1025B00000E00A250026B0460EE005FB080005FBFA
:1025C00006F101271FFA80F801EB1046B6F5803FAF
:1025D00000D3B94614F8010B2946FEF795FD0028F3
:1025E000EBDABBF1000F05D00FB1641E00E05446DA
:1025F000CBF80040B9F1000F06D0FDF731FE022103
:102600000160C81EBDE8F09F48EA0640FAE710B531
:102610000146C268900703D0900607D5886A0AE091
:10262000FDF71EFE01210160881E10BD8B69486800
:1026300018440B69C01A91F848301BB191F8491041
:10264000401A10BD1103FCD50028FADD401E10BD54
:1026500070B5054640F202260A4C0FE094F850008F
:10266000C00708D0AC4206D0E06836EA000002D1CC
:102670002046FEF78FF8206D20F00104002CEDD1EC
:1026800070BD0000B408002070B516460C46054623
:10269000FFF7A0F9036893F80101012806D0FF2C89
:1026A0000FD8185D68B101202C7070BDD3F80701F8
:1026B0003246214603F2071303442846BDE8704022
:1026C00018474FF0FF3070BD002801D000F050B81F
:1026D000704710B500F022F9BDE81040FFF7F4BFD5
:1026E00010B500F035F9BDE81040FFF7EDBF000070
:1026F00010B5002102A000F0F7F8012010BD000085
:102700005349475056464E3A2050757265207669B7
:10271000727475616C20666E2063616C6C65640018
:10272000124B694600F580528A421A6001D8114660
:1027300070471960704730B50C4D6B46A3F5805358
:102740002C6822449A420FD89B1A02F5805003EB62
:10275000D37302EB6303984200D91846C01D20F0E2
:1027600007020C60101B2A6030BD000060010020D1
:1027700001491820ABBEFEE7260002000048704762
:10278000B40900202DE9F0411F46044603260168E4
:10279000072A01F4006004DB08B116A505E016A5C0
:1027A00003E008B115A500E015A521F01000206098
:1027B000A069C01EA0610FB1401EA0612046FEF7B7
:1027C0009FFA4FB1D4E9012138469047206A401C56
:1027D0002062C01C206206E0206AFAE7D4E90121E9
:1027E00015F8010B9047761EF8D22046FEF79EFAA8
:1027F000BDE8F0814E414E006E616E00494E4600CC
:10280000696E66002DE9F047814616468AB0354864
:1028100078440DC88DE80D0032487844801C03AC24
:102820000DC884E80D0041F69B300844372190FB29
:10283000F1F290FBF1F5A5F1800501FB12041B3CC0
:1028400002D56442012000E00020DFF898A0804615
:102850000027FA44AAF1BE0A0EE0E0070AD0324689
:10286000684607EB470101230AEB810100F031FBC9
:102870008DE8070064107F1C002CEED1194F7F44B7
:10288000AE3F19E0E80715D007EB04100DF1180A68
:1028900090E80E008AE80E00C068F04201D1981955
:1028A00008903246012306A903A800F012FB03ABEF
:1028B00083E807006D10641C002DE3D14FF0010385
:1028C00032466946B8F1000F03A802D000F0ECFAD6
:1028D00001E000F0FEFAC9E90001C9F808200AB0D9
:1028E000BDE8F087A45C000070B505460C460A20E0
:1028F00000E06D1C00F054F835B128780028F8D1BC
:1029000002E0641C00F04CF814B120780028F8D1E3
:10291000BDE870400A2000F043B8000010B5014641
:1029200002A0FFF7E1FF012010BD0000534947520C
:10293000545245443A2052656469726563743A2082
:1029400063616E2774206F70656E3A20000000008E
:1029500010B5012805D0002103A0FFF7C5FF012015
:1029600010BD09A1F8E7000053494752544D454DA9
:102970003A204F7574206F662068656170206D6520
:102980006D6F7279000000003A2048656170206D1B
:10299000656D6F727920636F727275707465640013
:1029A00008B569468DF800000320ABBE08BD70472E
:1029B0005FEA400C08BF91F0000F4FEA8C234FEA0A
:1029C000C12243EA51514FEA1C5018BF00F5F040B4
:1029D0004FEA300018BF41F000415FEA6C5C00F044
:1029E0002980BCF1FF3F08BF40F080407047130CC6
:1029F00006BF12044FF0100C4FF0000C130E04BF72
:102A000012020CF1080C130F04BF12010CF1040C9C
:102A1000930F04BF92000CF1020CD30F04BF5200BD
:102A20000CF1010C11464FF00002A0F11F00A0EBC9
:102A30000C00704711F0004F08BF704731F00041A3
:102A40003FF4D5AF0B0C06BF09044FF0100C4FF04C
:102A5000000C0B0E04BF09020CF1080C0B0F04BF95
:102A600009010CF1040C8B0F04BF89000CF1020C5E
:102A7000CB0F04BF49000CF1010CCCF12003A0EBFB
:102A80000C0022FA03F302FA0CF241EA030100F10E
:102A90000100704720F07F4C80EA030023F07F475D
:102AA000ACEB070303F57C5300F0004003F1FF0398
:102AB0002DE980494FEA154B09B44FEA144325EA42
:102AC0000B4E24EA03480FF2042606EB13274908AD
:102AD0003E785FEA320203FB0667C7F5000707FB93
:102AE00006F64FEA54374FEAD64606F1020607FBD0
:102AF000066CCCF1005C4FEA1C472CEA074C07FB44
:102B000006F40CFB06F504EB15464FEA961634BFA7
:102B100000204FF000404FEAD13706FB07FC4FEA98
:102B20001C4C0CFB0BF7D21B03FB0CF761EB0701F2
:102B30000CFB0EF7B0EB074072EB17420CFB08F7EB
:102B400034BFA2EB0742B2EB074261EB17414FEAF9
:102B50000C444FEA910706FB07FC4FEA1C4C0CFBA8
:102B60000BF7B0EBC74072EB573203FB0CF734BFE7
:102B7000A2EBC742B2EBC74261EB57310CFB0EF739
:102B8000B0EBC70072EB57720CFB08F734BFA2EB37
:102B9000C702B2EBC70261EB5771039F4FEA816135
:102BA00041EA921104EBCC044FEAD1374FEA82623A
:102BB00006FB07FC42EA90124FEA80604FEA1C4C89
:102BC0000CFB0BF7D21B03FB0CF761EB07010CFBB3
:102BD0000EF7B0EB074072EB17420CFB08F734BF5F
:102BE000A2EB0742B2EB074261EB17414FEA8C556B
:102BF0004FEA910704EB9C2406FB07FC4FEA1C4CB0
:102C00000CFB0BF7B0EBC74072EB573203FB0CF732
:102C100034BFA2EBC742B2EBC74261EB57310CFBAA
:102C20000EF7B0EBC70072EB57720CFB08F734BF1E
:102C3000A2EBC702B2EBC70261EB577115EB4C2553
:102C40004FEA816141EA92114FEA82624FEAD1373D
:102C500042EA901206FB07FC44F100044FEA806050
:102C60004FEA1C4C0CFB0BF7D21B03FB0CF761EB80
:102C700007010CFB0EF7B0EB074072EB17420CFBA1
:102C800008F734BFA2EB0742B2EB074261EB1741F2
:102C900015EB1C154FEA813141EA92414FEA82322D
:102CA00042EA90424FEA80304FEA0C7644F1000449
:102CB00048EA03434EEA0B484FF0000EB2EB080C13
:102CC00071EB030724BF624639464EEB0E0E4FF000
:102CD000000B0018524149414BEB0B0BB2EB080CB7
:102CE00071EB03077BF1000B24BF624639464EEBC4
:102CF0000E0E4FF0000B0018524149414BEB0B0BED
:102D0000B2EB080C71EB03077BF1000B24BF6246AA
:102D100039464EEB0E0E51EA020718BF46F0010687
:102D200016EB0E7655F1000254F1000103D5BDE813
:102D30008901BDE80088BDE88901BDE80048B619F1
:102D4000524141EB0101A3F10103704780807F7E76
:102D50007D7C7B7A79787776767574737271717011
:102D60006F6E6E6D6C6C6B6A6A69686867666665C3
:102D70006464636362616160605F5F5E5E5D5D5C51
:102D80005C5B5B5A5A5959585857575656555555C2
:102D90005454535352525251515050504F4F4F4E22
:102DA0004E4D4D4D4C4C4C4B4B4B4A4A4A49494970
:102DB00048484847474747464646454545444444B2
:102DC000444343434342424242414141002B9C46DB
:102DD00030D477002BD01CB54FEA370703B44FF03F
:102DE00010004FF01001BAF1000F06D0BCF1000F37
:102DF000DCBF40F0080040F008014FF000000FBCBD
:102E0000BDE810400BF1010BBBF1010F08BF5FEAF9
:102E1000170722BF12F1010211F101014FF0004129
:102E200043F1000300F0004043EA00007047F9D38B
:102E30005708D0E746EA064613F1400F4FEA164618
:102E40001FDD13F1200FDFBF16430A460021203398
:102E50005B42BED0C3F1200746EA064602FA07F7F6
:102E60004FEA164646EA0706C3F1200722FA03F2A4
:102E700001FA07F721FA03F14FF0000342EA0702D3
:102E8000A7E746EA020646EA06464FEA164646EA3B
:102E90000106BCBF46EA0646360C4FF000034FF071
:102EA00000024FF0000194E72DE9804C9A469346CA
:102EB00070B491E8380007C831EA400C48BF34EAE2
:102EC000430C03D5FFF7E6FDFFF780FFF0BCBDE83C
:102ED000008C2DE9804C9A46934670B491E83800F6
:102EE00007C810F0804F08BF13F0804F03D100F0E7
:102EF00005F8FFF76BFFF0BCBDE8008C20F07F47C2
:102F000080EA030023F07F4C07EB0C03A3F57C530E
:102F100000F00040A3F1FE0392F0000F00F0B38038
:102F200095F0000F00F077802DE901494FEA11403C
:102F30004FEA144621EA004800FB06FC24EA064753
:102F400008FB06F607FB08F800FB07F718EB064836
:102F50004CEB164C4FEA124B18EB07484FEA15465C
:102F60004CEB174022EA0B4E0BFB06FC25EA06470A
:102F70000EFB06F607FB0EFE0BFB07F71EEB064EDD
:102F80004CEB164C4FF000061EEB074E4CEB174B6C
:102F900018EB0B0840F1000018EB0E0B58EB000883
:102FA00040F100008F1A4FF000013CBFC943661B7F
:102FB00014BFB5EB040C00213CBFC943F61B4FEA1C
:102FC00017444EEA8E0E27EA04454FEA1C4704FBDD
:102FD00007622CEA074C05FB07F70CFB05F604FB20
:102FE0000CFC16EB074642EB174216EB0C4642EB85
:102FF0001C421BEB060658EB0202414146EA9E06C4
:1030000001D5BDE80189B619524141EB0101A3F197
:103010000103BDE801894FEA14454FEA114724EA4C
:10302000054621EA074C05FB07F406FB07F70CFBF6
:1030300006F105FB0CFC11EB074144EB17444FEA8A
:10304000124711EB0C4144EB1C4422EA074C05FBF0
:1030500007F206FB07F70CFB06F605FB0CFC16EB6C
:10306000074642EB174216EB0C4642EB1C456A182A
:1030700054F1000148BF7047B619524141EB0101BC
:10308000A3F10103704795F0000F37D04FEA1142CA
:103090004FEA144721EA024624EA074C02FB07F1F3
:1030A00006FB07F70CFB06F402FB0CFC14EB0744D1
:1030B00041EB17414FEA154714EB0C4441EB1C411F
:1030C00025EA074C02FB07F506FB07F70CFB06F6A3
:1030D00002FB0CFC16EB074645EB174516EB0C46BE
:1030E00045EB1C42121951F1000148BF7047B61957
:1030F000524141EB0101A3F1010370474FEA14452E
:103100004FEA114724EA054621EA074C05FB07F17F
:1031100006FB07F70CFB06F24FF0000605FB0CFC64
:1031200012EB074241EB174112EB0C4251EB1C41F1
:1031300048BF7047921841EB0101A3F101037047AA
:1031400010B503F013FCBDE8104003F0ABBA00214A
:10315000C16070470021014802F016BF00640040C2
:1031600010B590F821100024022903D004218163B6
:10317000012439E001680A6822F00E020A60016841
:103180000A6822F001020A60184A0168914208BFE9
:1031900001211DD0164A914208BF102118D0154AAE
:1031A000914208BF4FF4807112D0134A914208BF78
:1031B0004FF480510CD0114A914208BF4FF4803136
:1031C00006D00F4A91420CBF4FF480114FF080712E
:1031D0000C4A5160012180F82110002180F8201054
:1031E000416B002918BF8847204610BD08000240E7
:1031F0001C000240300002404400024058000240DF
:103200006C00024000000240014800687047000066
:103210002801002002480168491C01607047000035
:1032200028010020074810B5016841F01001016035
:10323000032000F06FF80F2000F006F800F068F8A7
:10324000002010BD0020024038B52948C16941F076
:103250000401C161C16901F004010091016941F0FB
:1032600004010161016921F00401016100F0B4FF72
:10327000214C2048224920604FF6FF70E0601F4833
:103280000068B0FBF1F0401E606000202061A0608B
:103290006061A061204600F09FFB0021204600F005
:1032A000D7FB0421204600F0D3FB2068426A154971
:1032B0000A60096801F57A7181631448124900684F
:1032C000C0F8B8104FF0E0214FF08040C1F8000185
:1032D0002068C16841F00101C1602068C16841F007
:1032E0000401C160204600F093FB002038BD0000BF
:1032F0000010024000080040580800202C01002067
:1033000040420F0014010020F177000808ED00E0B2
:1033100070470000074900F007000A684FF6FF03F6
:103320001A4042EA002040F0FD7040F080600860E2
:10333000704700000CED00E02DE9F0436E4E0446AE
:1033400085B030680F4600F00700B84209D23068F7
:1033500020F0070038433060306800F00700B842C2
:103360007AD12078DFF8948110F0020F07D0D8F8D6
:103370000400A16820F0F0000843C8F80400207899
:1033800010F0010F59D06068012826D0D8F800103D
:10339000022828D011F0020F5ED000BFD8F8041028
:1033A00021F003010843C8F80400FFF72DFF05468C
:1033B000606841F28839012819D00228D8F8040041
:1033C00000F00C0026D020B3FFF71EFF401B48453D
:1033D0002ED905B00320BDE8F083D8F8001011F411
:1033E000003FDBD138E011F0007FD7D134E0D8F8CE
:1033F000040000F00C0004281FD000BFFFF704FFFA
:10340000401B4845E5D8D8F8040000F00C0004281B
:10341000F4D112E0082810D0FFF7F6FE401B484513
:10342000D7D8D8F8040000F00C000828F4D104E044
:10343000D8F8040010F00C0FC6D1306800F0070077
:10344000B8420DD9306820F007003843306030684A
:1034500000F00700B84203D005B00120BDE8F083BA
:10346000207810F0040F07D0D8F80400E16820F4A9
:10347000E0600843C8F80400207810F0080F08D076
:10348000D8F80400216920F4605040EAC100C8F86F
:1034900004001B4B0FCB8DE80F001A480068049006
:1034A000D8F80410184801F00C02042A14D0082A95
:1034B00012D1C1F3834311F4803F1DF8032004BFF0
:1034C0001248504308D0D8F8041004ABC1F340416F
:1034D000595CB0FBF1F05043D8F804100C4AC1F32A
:1034E0000311515CC8400B4908600F20FFF7ACFE88
:1034F00005B00020BDE8F08300200240001002402B
:10350000EC350008FC35000800127A0000093D0087
:103510008C8300082C0100200F2202600C4A5368A3
:1035200003F003034360536803F0F00383605368C0
:1035300003F4E063C36052684FF4E06303EAD2022D
:1035400002610448006800F007000860704700004E
:103550000010024000200240044805490068496804
:10356000044AC1F30221515CC84070472C0100207D
:10357000001002409C83000804480549006849681F
:10358000044AC1F3C221515CC84070472C0100209D
:10359000001002409C83000814A386B00FCB8DE876
:1035A0000F0016A0164B006804905968154801F0EA
:1035B0000C02042A04BF06B07047082A1CBF06B0DC
:1035C0007047C1F3834C11F4803F1DF80C2001BFFC
:1035D0000D48504306B07047596804ABC1F34041F1
:1035E000595C06B0B0FBF1F050437047020304058C
:1035F000060708090A0B0C0D0E0F1010010200003F
:103600000010024000127A0000093D002DE9F84F39
:1036100004460078E04D10F0010F59D0686800F0C2
:103620000C00042808D0686800F00C0008280CD1B1
:10363000686810F4803F08D0286810F4003F47D035
:103640006068002800F0A58142E06068B0F5803F26
:1036500004BF286840F480300AD010B1B0F5A02F24
:1036600011D0286820F480302860286820F4802059
:1036700028606068D0B1FFF7C7FD0646286810F4DF
:10368000003F08D024E0286840F4802028602868A3
:1036900040F48030ECE7FFF7B7FD801B642800F2B0
:1036A0003681286810F4003FF5D011E0FFF7ACFD3B
:1036B0000646286810F4003F0AD000BFFFF7A4FDBB
:1036C000801B642800F22381286810F4003FF5D1A4
:1036D0002078B24E10F0020F4FF0010B4FF00008AF
:1036E00045D0686810F00C0F14D0686800F00C002A
:1036F000082804BF686810F4803F0BD0206918B315
:10370000C6F800B0FFF780FD0746286810F0020FEA
:1037100009D011E0286810F0020F1CBF20690128B1
:103720000AD000F036B9FFF76FFDC01B02287DD824
:10373000286810F0020FF6D02868616920F0F800C0
:1037400040EAC100286012E0C6F80080FFF75CFD87
:103750000746286810F0020F09D000BFFFF754FD9C
:10376000C01B022862D8286810F0020FF6D120781A
:1037700010F0080F35D08A48A169F9B1C0F800B03F
:10378000FFF742FD0746686A10F0020F09D100BF3B
:10379000FFF73AFDC01B022848D8686A10F0020FF4
:1037A000F6D080484FF4FA510068B0FBF1F0009079
:1037B00000BF0098411E0091FAD212E0C0F80080CC
:1037C000FFF722FD0746686A10F0020F09D000BF1C
:1037D000FFF71AFDC01B022828D8686A10F0020FF4
:1037E000F6D1207810F0040F79D0E8694FF0000A84
:1037F00010F0805F09D1E86940F08050E861E86925
:103800004FF0010A00F080500090DFF89C91D9F849
:10381000000010F4807F19D1D9F8000040F48070C6
:10382000C9F80000FFF7F0FC074600E06FE0D9F8A8
:10383000000010F4807F09D1FFF7E6FCC01B64286C
:1038400065D8D9F8000010F4807FF5D0E068012831
:1038500004BF286A40F0010009D008B1052813D040
:10386000286A20F001002862286A20F004002862FB
:10387000E06841F28837D0B1FFF7C6FC8146286A7C
:1038800010F0020F08D023E0286A40F004002862FC
:10389000286A40F00100EAE7FFF7B6FCA0EB090058
:1038A000B84234D8286A10F0020FF5D010E0FFF7C4
:1038B000ABFC8146286A10F0020F09D0FFF7A4FC88
:1038C000A0EB0900B84222D8286A10F0020FF5D107
:1038D000BAF1000F03D0E86920F08050E861E06998
:1038E000F0B3696801F00C01082952D00228C6F82B
:1038F00060800FD0FFF788FC0446286810F0007F36
:1039000044D000BFFFF780FC001B02283AD90320F7
:10391000BDE8F88FFFF778FC0746286810F0007FB5
:1039200009D000BFFFF770FCC01B0228EFD8286841
:1039300010F0007FF6D1206AB0F5803F05D16868AD
:10394000A16820F4003008436860D4E90801084306
:10395000696821F4741108436860C6F860B000E03B
:1039600014E0FFF751FC0446286810F0007F0DD1E9
:10397000FFF74AFC001B0228C9D8286810F0007F16
:10398000F6D003E0286810F0007FBBD10020BDE82E
:10399000F88F0120BDE8F88F00100240000042427D
:1039A000800442422C010020007000400268042381
:1039B00003FA01F1136A8B431362136A194311620C
:1039C00001684A6C42F400424A640068016841F0B0
:1039D0000101016000207047002804BF01207047EA
:1039E00010B5044690F83D0028B9002084F83C004A
:1039F000204600F00CF8022084F83D00211D2068CC
:103A000000F046FC012084F83D00002010BD704706
:103A1000022180F83D1001680A6842F001020A6044
:103A2000012180F83D100020704790F83C20012AC9
:103A300004BF022070470122022380F83D30036852
:103A4000596180F83D20002180F83C1008467047FD
:103A50000268012303FA01F1136A8B431362136AAC
:103A6000194311620168A1F18042B2F5963203D187
:103A70004A6C42F400424A640068016841F0010166
:103A8000016000207047000090F83C30012B04BF1B
:103A900002207047F0B4012480F83C40022380F8F3
:103AA0003D307C4B3AB1042A3ED0082A7CD00C2A07
:103AB00079D000F0E7B80268D2F820C02CF0010CF1
:103AC000C2F820C0D2F820C0556896690F6826F069
:103AD00073063E438F682CF0020C47EA0C0C9A42A6
:103AE0000DD12CF00803D1F80CC04CEA030323F0ED
:103AF000040C25F440734D692B438D691D435560BB
:103B000096614B685363C2F820C00268936943F022
:103B1000080393610268936923F0040393610268C8
:103B20009369096919433BE00268D2F820C02CF080
:103B3000100CC2F820C0D2F820C0556896690F68F2
:103B400026F4E64646EA07268F682CF0200C4CEA5D
:103B5000071C9A420FD12CF08003D1F80CC043EA25
:103B60000C1323F0400C25F440634D6943EA8503B0
:103B70008D6943EA8505556096614B689363C2F889
:103B800020C00268936943F40063936102689369FB
:103B900023F48063936102689369096943EA012110
:103BA00091616FE000E03AE00268D2F820C02CF4A6
:103BB000807CC2F820C0D2F820C05568D6690F6852
:103BC00026F073063E438F682CF4007C4CEA072CE9
:103BD0009A420FD12CF40063D1F80CC043EA0C23B5
:103BE00023F4806C25F440534D6943EA05138D6935
:103BF00043EA05155560D6614B68D363C2F820C00F
:103C00000268D36943F00803D3610268D36923F0E3
:103C10000403D3610268D3690969194331E002687A
:103C2000D2F820C02CF4805CC2F820C0166AD2F80A
:103C300004C0D5690F6825F4E64545EA07258F6875
:103C400026F4005646EA07369A4205D12CF4804302
:103C5000D1F814C043EA8C1CC2F804C0D5614B688B
:103C6000136416620268D36943F40063D361026887
:103C7000D36923F48063D3610268D369096943EA95
:103C80000121D16180F83D40002180F83C10F0BC5A
:103C900008467047002C0140002804BF01207047EF
:103CA00010B5044690F83D0028B9002084F83C0087
:103CB000204600F00CF8022084F83D00211D206809
:103CC00000F0E6FA012084F83D00002010BD7047A6
:103CD0000268012303FA01F1136A8B431362136A2A
:103CE000194311620168A1F18042B2F5963203D105
:103CF0004A6C42F400424A640068016841F00101E4
:103D0000016000207047006881B0016811F0010F68
:103D100004BF016811F0020F03D04068009001B0A9
:103D20007047016811F0040F04BF016811F0080F1B
:103D3000F3D101B07047000070B50168044608680F
:103D4000CA684B6910F00F0F4FF0200545D003F003
:103D5000010C02F490765CEA060C00F0FD8010F095
:103D6000010F18BF12F4807F05D0D4F83CC04CF08E
:103D7000010CC4F83CC010F0040F18BF13F0010F81
:103D800005D0D4F83CC04CF0020CC4F83CC010F094
:103D9000020F18BF13F0010F05D0D4F83CC04CF04F
:103DA000040CC4F83CC010F0080F18BF13F0010F4A
:103DB00003D0E36B43F00803E363E36B002B08BF1E
:103DC00070BD10F0200F18BF12F0200F73D094F8C0
:103DD0003A202046222A4BD087E010F0200F18BF4F
:103DE00012F0200F00F0B88094F83A202046222AE2
:103DF00018BF70BD8268B2F5805F23D0026982B3BC
:103E0000496801F07F02816A4B1C83620A70C18D90
:103E1000491E0904090CC18518BF70BD0168CA6834
:103E200022F02002CA600168CA6822F48072CA6067
:103E300001684A6922F001024A6180F83A5000F0B4
:103E400003F970BD0369826A4968002B14BFC9B2C7
:103E5000C1F308011180816A14BF491C891C816269
:103E6000D5E7FFE74A68816A4B1C83620A70CEE798
:103E70008268B2F5805F0FD00269EAB1496801F04B
:103E80007F02816A4B1C83620A70C18D491E09043E
:103E9000090CC18529D115E00369826A4968002BA4
:103EA00014BFC9B2C1F308011180816A14BF491C53
:103EB000891C8162E9E718E04A68816A4B1C8362C9
:103EC0000A70E2E70168CA6822F02002CA6001684D
:103ED000CA6822F48072CA6001684A6922F001024D
:103EE0004A6180F83A5000F0AFF820684169E26B0F
:103EF000C1F3801102F00802114326D0C16821F4F9
:103F00009071C1602068416921F00101416184F82C
:103F10003A502068416911F0400F12D0416921F0F8
:103F200040014161606B60B12D494163606BFFF7F7
:103F300017F9002808BF70BD606B416BBDE8704089
:103F400008472046FFF7DFFE70BD2046FFF7DBFE87
:103F50000020E06370BD00BF10F0800F18BF12F0AA
:103F6000800F2CD094F83900212818BF70BDA068AC
:103F7000B0F5805F206A16D0411C2162216800786C
:103F80004860E08C401E0004000CE08418BF70BD47
:103F90002068C16821F08001C1602068C16841F0DB
:103FA0004001C16070BD0088C0F30800486020690E
:103FB0000028206A14BF401C801C2062E1E710F03A
:103FC000400F14BF12F0400F70BD2046CA6822F0A7
:103FD0004002CA6084F8395000F037F870BD000024
:103FE00009430008002804BF0120704770B504464B
:103FF00090F83900002520B984F83850204600F0A8
:1040000022F8242084F839002068C16821F4005186
:10401000C160204600F080F92068016921F49041D8
:1040200001612068416921F02A0141612068C1686D
:1040300041F40051C160E563202084F8390084F820
:104040003A00002070BD704770470068016811F0A9
:10405000400F1CBF6FF04001016070472DE9F04731
:1040600090B001264FF4E01A4FF4A0200024CDF8C0
:1040700024A00096CDE901040225EF03CDE90757FE
:104080006846FFF7C3FA4FF00F084FF4806970B924
:10409000CDF82880CDE90B54CDE90D9402210AA872
:1040A000FFF74AF9002804BF10B0BDE8F08700967A
:1040B000CDE90174CDF824A0CDE907576846FFF794
:1040C000A5FA70B9CDF82880CDE90B54CDE90D944F
:1040D00002210AA8FFF730F9002804BF10B0BDE89C
:1040E000F0870320CDE900041020CDE904604FF4EF
:1040F0006010CDE9084007956846FFF787FA70B968
:10410000CDF82880CDE90B54CDE90D9402210AA801
:10411000FFF712F9002804BF10B0BDE8F087FEE7F2
:1041200038B500241D49052833D2DFE800F0030D1F
:10413000162029001A4C886940F0040088618869BB
:1041400000F00400009027E0164C886940F0080059
:104150008861886900F0080007E0134C886940F026
:1041600010008861886900F01000009014E00F4C86
:10417000886940F020008861886900F02000F4E739
:104180000B4C886940F040008861886900F040006D
:10419000EBE708A001F0FEFF204638BD001002400A
:1041A00000080140000C01400010014000140140D3
:1041B0000018014050696E6D6170206572726F72F7
:1041C0003A2077726F6E6720706F7274206E756D13
:1041D0006265722E0000000016494868164A10F009
:1041E0000C03164818BF042B01D0082B01D0026025
:1041F00015E04A684B6802F470124FF0020C13F499
:10420000803F0CEB924203D04B6813F4003F03D085
:104210000B4B5A43026002E0074B5A430260496865
:10422000084AC1F30311515C026822FA01F10160EE
:10423000704700000010024000127A002C0100209C
:1042400000093D008C8300080E48016841F001011F
:10425000016041680C4A11404160016821F410215D
:1042600021F080710160016821F4802101604168C2
:1042700021F4FE0141604FF41F0181600349C00336
:1042800008607047001002400000FFF808ED00E0F1
:1042900030B40268194BDFF868C01A4C984218BF56
:1042A000B0F1804F03D0604518BFA04203D14D68E4
:1042B00022F070022A43984218BFB0F1804F03D019
:1042C000604518BFA04205D1D1F80CC022F440725D
:1042D0004CEA0202D1F814C022F080024CEA020239
:1042E00002608A68C2620A688262984204BF0969F1
:1042F00001630121416130BC70470000002C014086
:10430000000400400008004010B5406A0021C1854B
:10431000C184FFF7F8FC10BD2DE9F04104460068A8
:104320000169E26821F44051114301612169A068EB
:104330000143606901432068C26822F4037222F4D9
:10434000A0521143C16020684169A26921F4407103
:104350001143416120685C4D3226A0F18041B1F5E6
:104360009C3158D0FFF7F8F800EBC00101EB0010CA
:1043700061688900B0FBF1F7FFF7EEF800EBC001D0
:1043800001EB001061688900B0FBF1F0A5FB0010A3
:1043900040096FF01801484307EB800006EB00105E
:1043A000A5FB0010400900F0F007FFF7D5F800EB7F
:1043B000C00101EB001061688900B0FBF1F0A5FBC2
:1043C0000010400907EB0017FFF7C6F800EBC0012B
:1043D00001EB001061688900B0FBF1F8FFF7BCF851
:1043E00000EBC00101EB001061688900B0FBF1F047
:1043F000A5FB001040096FF01801484308EB80004E
:1044000006EB0010A5FB00102168C0F343103844F0
:104410008860BDE8F081FFF7AFF800EBC00101EB69
:10442000001061688900B0FBF1F7FFF7A5F800EB19
:10443000C00101EB001061688900B0FBF1F0A5FB41
:10444000001040096FF01801484307EB800006EBAD
:104450000010A5FB0010400900F0F007FFF78CF8F2
:1044600000EBC00101EB001061688900B0FBF1F0C6
:10447000A5FB0010400907EB0017FFF77DF800EBE4
:10448000C00101EB001061688900B0FBF1F8FFF793
:1044900073F800EBC00101EB001061688900B0FB0C
:1044A000F1F0A5FB001040096FF01801484308EB3C
:1044B000800006EB0010A5FB00102168C0F343103C
:1044C00038448860BDE8F0811F85EB510021014828
:1044D00001F05ABD006400400021014801F054BDC4
:1044E0000064004010B50121074800F03CF80021AD
:1044F000064800F038F80021054800F034F80121A2
:10450000044800F030F810BD740200209002002032
:10451000AC020020C802002010B50021074800F0BE
:1045200022F80021064800F01EF80021054800F09E
:104530001AF80021044800F016F810BD740200209B
:1045400090020020AC020020C802002070B5044692
:104550000D461C212046FCF7CBFA2946204601F0E7
:10456000CDFE204670BD30B50A4613461BB18568A6
:1045700004682C6002E0C56804682C6000BF00BFBE
:1045800030BD70B504460068012200210369204651
:104590009847050048BF70BD2068022200210369CA
:1045A000204698470646206800222946036920468F
:1045B0009847304670BD002070474C3002F02EBE48
:1045C00010B50C464C3003F027F8204610BD000013
:1045D00010B500EB011000F19804D0F8A40028B940
:1045E00040F20E220449054802F03AF9E0680168F9
:1045F0002046BDE810400847D5860008D086000850
:1046000070B504464C3002F0DDFE054600F47C51E6
:10461000606C002818BF002904D004F13802036838
:1046200010469847626B05F0FC01002A14BF002970
:1046300070BD04F128001268BDE87040104770B5E5
:10464000044600680D46016820468847294604F163
:104650004C0002F0E0FDC4F8B850206841682046E4
:10466000BDE8704008477047F0B5064600680D4643
:1046700085B0016817463046884701F019FD06EB02
:104680000710E96800F19804B1B1AC420DD0E168BF
:10469000204600291CBF89688847E86818B142682D
:1046A000294620469047E868E0600122394606F135
:1046B0004C0002F035FF20E0144800906D4614488D
:1046C0000390AC420DD0E168204600291CBF8968E8
:1046D00088472946039810B14268204690470398BE
:1046E000E0600399684600291CBF8968884700225A
:1046F000394606F14C0002F013FF01F01FFD30684F
:10470000416805B03046BDE8F0400847B34E0008A8
:10471000C4860008704700002DE9F0479046044623
:10472000364A84B034481E4689462060D2E90213D6
:104730000022A160E3603249216148F20701616112
:10474000E261A46104F1080121622E496162BFF3B4
:104750006F8FBFF34F8F00206063606484F8480060
:1047600084F849004C2104F14C00FCF7C1F9022304
:104770001022254904F1980001F066F9DFF88CA0B9
:10478000A0F198050027066205EB071000F19804D8
:104790006E461F48CDF80CA00090B4420DD0E168E1
:1047A000204600291CBF89688847039818B14268D1
:1047B0003146204690470398E060039968460029F7
:1047C0001CBF896888477F1C022FDDD342464946BB
:1047D00005F14C0002F038FD05F14C00D5F8B81099
:1047E00002F019FD2A460B4905F14C0002F0DEFDEE
:1047F00004B02846BDE8F08724850008A48300089B
:1048000001A090E83D7C00084F310008C4860008F4
:10481000B34E0008D145000810B5002908BF10BDEF
:1048200001290CD0022918BF10BD00F14004C06C52
:1048300050B1E06801682046BDE81040084700F12B
:104840003004C06B0028F4D140F20E220249034824
:1048500002F006F8EDE70000D5860008D0860008D3
:104860002DE9F041044684B02E48206000206060AD
:10487000A060E06020616061A061E0612062606230
:10488000A062E062E063E06404F130056E46264811
:10489000DFF898800F46CDF80C800090B5420ED01E
:1048A000E968284600291CBF896888473DB1314620
:1048B000039810B14268284690470398E86003992E
:1048C000684600291CBF8968884704F140056E4688
:1048D000CDF80C8014480090B5420ED0E968284607
:1048E00000291CBF896888473DB13146039810B143
:1048F0004268284690470398E86003996846002973
:104900001CBF896888472346394604F12000084ABD
:1049100001F076FD3946201D01F0DCFC04B0204694
:10492000BDE8F0813C850008B14E0008C48600084F
:104930001948000810B504460A48206004F1200018
:1049400001F010FDE06C403410B1816820468847CA
:1049500054F8040C103C10B1816820468847A4F13B
:10496000300010BD3C85000830B583B00C460546CC
:1049700002460BA16846FBF7EDFC21466846FBF7B3
:104980008AFF040008D02868C1692846884718B102
:1049900020460021FBF7A6FF03B0204630BD0000F3
:1049A0003A25700070B5174C05462068002804BFF2
:1049B000201D2060261DB04204D05B2212491348FE
:1049C00001F04EFF00212468114B1022084600BF61
:1049D00053F821C0AC4508BF43F82100491C521EC2
:1049E000F6D10848002C04BF011D01600068B042E8
:1049F00008BF70BD5B22BDE870400349034801F069
:104A00002FBF000018010020608600084C860008B7
:104A1000C00600200021FBF765BF10B5044601F079
:104A200047FB206830B9A06902F0DAFEC4E9020150
:104A300001202060BDE8104001F080BB10B50446A5
:104A400000202060C4E90200C4E9040001F0E0FB9A
:104A5000A06101F02DFBA06902F0C2FEC4E90201D1
:104A60000020C4E9040001F069FB204610BD70B5C8
:104A700004460D4601F01CFB2946204602F032FB9D
:104A800001F05CFB70BD70B504460D4601F010FBF3
:104A90002946204602F052FA01F050FB70BD70B575
:104AA00004460D4601F004FB2946204602F0BAF9FF
:104AB00001F044FB204670BD7047704710B51C469E
:104AC000029BFFF729FE2146BC3000F0D5F80549CE
:104AD00040F8BC1D7C31C0F8C0105C39C0F8BC1077
:104AE00010BD00004C85000810B5FFF715FE002131
:104AF000BC3000F0C1F8054940F8BC1D7C31C0F85D
:104B0000C0105C39C0F8BC1010BD00004C85000816
:104B100010B5124940F8C01B7C3140F804195C39CB
:104B2000016000F0E1F8A0F1BC040D482060022310
:104B300010220C4904F19800FCF77EF8606C3834C0
:104B400010B181682046884754F8040C103C10B11D
:104B5000816820468847A4F1280010BD4C850008D4
:104B600024850008CF7B000870B504460068C16C3E
:104B7000204688476069FBF728FE606900F09AF9D3
:104B800005462068016D20468847284670BD70475D
:104B900070B5044600680D46C16C204688476069C0
:104BA000FBF713FE2846616901F024FB05462068E7
:104BB000016D20468847284670BD2DE9F041054625
:104BC00000680F460C468E18C16C28468847B442D0
:104BD0000AD02868826C28469047B0F1FF3F03D086
:104BE00004F8010BB442F4D12868016D28468847C7
:104BF000E01BBDE8F08100207047002070470020D6
:104C000070472DE9F041054600680F460C468E18A6
:104C1000C16C28468847B4420AD0286814F8011BA2
:104C2000426C28469047B0F1FF3F18BFB442F4D120
:104C30002868016D28468847E01BBDE8F081002008
:104C400070470FB470B504460068C16C20468847B1
:104C500006AD6069FBF7B9FD2A4660690599FBF767
:104C600073FB05462068016D20468847284670BCC6
:104C70005DF814FB7047000010B5104A40F8042B93
:104C8000002200F07BF8041F0D4820605C3060605B
:104C9000002060610BA1204600F036F801000846B4
:104CA000616102D0FFF7B6FE05E0FBF7D9FA0168B3
:104CB00005A001F06FFA204610BD0000D88400085E
:104CC000D8850008772B000053747265616D206FE2
:104CD000626A206661696C7572652C206572726EFD
:104CE0006F3D25640D0A000010B50446054820609C
:104CF0005C3060606069FBF7FFFD201D00F05EF82E
:104D0000001F10BDD8850008FFF72EBE007B70473E
:104D100070B506460D46154802F018FF14480468A1
:104D2000F4B1A068C8B12A463146FBF758FEA0B9D5
:104D3000A068FBF735FEA8420FD10C480168002996
:104D400004BF011D0160001D814204D05B2209499E
:104D5000094801F085FD204670BD6468002CE0D153
:104D6000024802F0F3FE002070BD00004C0100205C
:104D700048010020608600084C86000870B5044693
:104D80000B480026A160C4E900060D4622730948BD
:104D900002F0DCFE002D08BF666003D00648016803
:104DA00061600460034802F0D1FE204670BD00003F
:104DB000448600084C0100204801002010B504463C
:104DC00010482060104802F0C1FEA06878B10F4979
:104DD0000868A04204BF6068086008D04168A1422A
:104DE00003D008464968A142FBD16168416006488A
:104DF00002F0ACFE207B002804BF201FFFF7D2FD8D
:104E0000204610BD448600084C01002048010020C7
:104E100010B50446406818B1FFF778FF012801D0AB
:104E2000002010BD6068002818BF001F10BD10B51D
:104E30000446406810B1FFF769FF08B1002010BDBB
:104E40006068002818BF001F10BD4068002818BF08
:104E50000120704710B54068002808BF10BDFFF75B
:104E600055FF00280CBF0120002010BD00687047CE
:104E700010B5044600202060606008782F280DD10E
:104E8000487858B14B1C00212360226810782F28E5
:104E900006D038B1501C491C2060F6E7204610BDF2
:104EA000501C20601846FFF733FF6060204610BD9D
:104EB0007047704701F092B970B504460D4616462A
:104EC0002878612802DB28787A2800DD70BD174930
:104ED00009B1BC3100E00021084633462A4614A13E
:104EE000FFF7AFFE17A12846FBF754FE10B90120CB
:104EF000607019E016A12846FBF74CFE50B9A07867
:104F000090B92022314604F14300FBF718FE01203E
:104F1000A07009E010A12846FBF73CFE20B93078CC
:104F2000352801D10120207000BFCFE764010020A7
:104F3000676F74526573706F6E73652025732025DB
:104F4000730D0A00636F6E6E656374656400000024
:104F5000636F6E74726F6C007769666900000000A1
:104F6000F0B5A1B004460E46174600BF2DA104F5CA
:104F70009070FFF766FE2CA101A8FBF7EBF901ADDD
:104F800008E0297804F59070FFF702FE2D4802F042
:104F900091FD6D1C28780028F3D12B4802F08AFD82
:104FA00000BF00BF1FA104F59070FFF74AFE3B460B
:104FB000324626A101A8FBF7CDF901AD08E029781A
:104FC00004F59070FFF7E4FD1E4802F073FD6D1CC0
:104FD00028780028F3D11C4802F06CFD00BF4FF088
:104FE000804002F067FD00BF0EA104F59070FFF74E
:104FF00028FE1EA101A8FBF7ADF901AD08E0297854
:1050000004F59070FFF7C4FD0E4802F053FD6D1CCF
:1050100028780028F3D10C4802F04CFD00BF012095
:1050200021B0F0BD0D000000776966692E736574CC
:105030006D6F646528776966692E53544154494FF2
:105040004E290D000AD7A33C9A99993E7769666963
:105050002E7374612E636F6E666967285B5B2573C0
:105060005D5D2C5B5B25735D5D290D00776966696D
:105070002E7374612E6175746F636F6E6E656374E9
:105080002831290D0000000030B5A1B0044600BF52
:1050900010A104F59070FFF7D4FD0FA101A8FBF754
:1050A00059F901AD08E0297804F59070FFF770FD1B
:1050B000134802F0FFFC6D1C28780028F3D111483A
:1050C00002F0F8FC00BF104802F0F4FC207821B098
:1050D00030BD00000D0000007072696E7428275CFE
:1050E000303335776966692B272E2E776966692EEE
:1050F0007374612E7374617475732829290D00000F
:105100000AD7A33C9A99993ECDCCCC3EF0B5A1B03C
:1051100004460E46174600BF11A104F59070FFF734
:1051200090FD3B4632460FA101A8FBF713F901ADF4
:1051300008E0297804F59070FFF72AFD164802F080
:10514000B9FC6D1C28780028F3D1144802F0B2FC99
:1051500000BF134802F0AEFC012021B0F0BD0000FA
:105160000D0000006D3A7075626C69736828272F16
:1051700076616C7565732F272E2E6E6F64655F6E7A
:10518000616D652E2E272F2573272C222573222C47
:10519000302C31290D0000000AD7A33C9A99993E82
:1051A000CDCCCC3D2DE9F04107460E4614460020FB
:1051B0003070002513E054F835103046FBF75AFCE8
:1051C0000AA13046FBF756FC04EBC50041683046A7
:1051D000FBF750FC06A13046FBF74CFC6D1C54F865
:1051E00035000028E7D1BDE8F08100002C00000068
:1051F0005C6E00002DE9F04704460E461746A07885
:1052000010B90020BDE8F08704F143084FF02B09E6
:1052100049464046FBF796FB054600BF15B90020FE
:10522000A070EFE70020287004F143013046FBF73F
:1052300093FB691C3846FBF78FFB0020A070012010
:10524000E0E70000F0B5A1B004460E46174600BFE7
:1052500010A104F59070FFF7F4FC32460EA101A8EE
:10526000FBF778F801AD08E0297804F59070FFF7B6
:105270008FFC154802F01EFC6D1C28780028F3D125
:10528000124802F017FC00BF114802F013FC012085
:1052900021B0F0BD0D0000006D3A7375627363724A
:1052A00069626528272F636F6E74726F6C2F272ECB
:1052B0002E6E6F64655F6E616D652E2E272F2573D0
:1052C000272C2030290D00000AD7A33C9A99993E3B
:1052D000CDCCCC3D70B5044604F59070FFF744FC8E
:1052E000C5B23348007820B101280BD002285CD128
:1052F00036E0232D05D100202E49086001202C49DD
:10530000087052E02B2D03D00D2D01D00A2D19D19C
:105310000021E01C274A126881542B2D06D1002061
:105320002549086002202249087018E00022E11C8B
:105330002046FFF7C1FD012084F8630000201C49CE
:1053400008700CE01B480068401C202807D2194850
:1053500001680068401C174A1060E01C455424E0B6
:105360000D2D01D00A2D11D1002104F12300124A84
:10537000126881540246E11C2046FFF79DFD012082
:1053800084F8630000200A4908700DE00A480068AC
:10539000401C202808D2084801680068401C064AC2
:1053A000106004F12300455400BF00BF70BD000031
:1053B000F0000020F4000020F80000202DE9F04764
:1053C000A0B00446884691461E46289D00BFC5A150
:1053D00004F59070FFF735FC4A46C3A16846FAF71A
:1053E000B9FF6F4608E0397804F59070FFF7D0FBFD
:1053F000C24802F05FFB7F1C38780028F3D1C04818
:1054000002F058FB00BF00BFB6A104F59070FFF793
:1054100018FCBCA16846FAF79DFF6F4608E0397892
:1054200004F59070FFF7B4FBB44802F043FB7F1C17
:1054300038780028F3D1B24802F03CFB00BF00BF2F
:10544000A8A104F59070FFF7FCFB4246B9496846F5
:10545000FAF780FF6F4608E0397804F59070FFF79F
:1054600097FBA64802F026FB7F1C38780028F3D172
:10547000A34802F01FFB00BF00BF4FF07C5002F0BA
:1054800019FB60780028F8D000BF96A104F5907051
:10549000FFF7D7FBA8A16846FAF75CFF6F4608E064
:1054A000397804F59070FFF773FB944802F002FB23
:1054B0007F1C38780028F3D1914802F0FBFA00BF36
:1054C00000BF88A104F59070FFF7BBFBA6A168465A
:1054D000FAF740FF6F4608E0397804F59070FFF75F
:1054E00057FB864802F0E6FA7F1C38780028F3D193
:1054F000834802F0DFFA00BF00BF7AA104F5907084
:10550000FFF79FFBA1A16846FAF724FF6F4608E06A
:10551000397804F59070FFF73BFB784802F0CAFA3F
:105520007F1C38780028F3D1754802F0C3FA00BF19
:1055300000BF6CA104F59070FFF783FB9FA1684644
:10554000FAF708FF6F4608E0397804F59070FFF726
:105550001FFB6A4802F0AEFA7F1C38780028F3D1AE
:10556000674802F0A7FA00BF00BF5EA104F5907083
:10557000FFF767FB9FA16846FAF7ECFE6F4608E06D
:10558000397804F59070FFF703FB5C4802F092FA5B
:105590007F1C38780028F3D1594802F08BFA00BFFD
:1055A00000BF50A104F59070FFF74BFB93A1684634
:1055B000FAF7D0FE6F4608E0397804F59070FFF7EF
:1055C000E7FA4E4802F076FA7F1C38780028F3D1CB
:1055D0004B4802F06FFA00BF00BF42A104F5907083
:1055E000FFF72FFB87A16846FAF7B4FE6F4608E085
:1055F000397804F59070FFF7CBFA404802F05AFA78
:105600007F1C38780028F3D13D4802F053FA00BFE0
:10561000894802F04FFA4FF4007000F0E5F9824635
:1056200026B3324651462046FFF7BCFD00BF2DA1F0
:1056300004F59070FFF705FB524680A16846FAF723
:1056400089FE6F4608E0397804F59070FFF7A0FAFC
:105650002A4802F02FFA7F1C38780028F3D1284816
:1056600002F028FA00BF744802F024FA002D31D06D
:105670002A4651462046FFF795FD00BF19A104F5C3
:105680009070FFF7DEFA52467BA16846FAF762FE99
:105690006F4608E0397804F59070FFF779FA1748FB
:1056A00002F008FA7F1C38780028F3D1144802F081
:1056B00001FA00BF604802F0FDF9002706E055F846
:1056C000371000222046FFF7BDFD7F1C55F837003C
:1056D0000028F4D1504600F081F9012020B0BDE847
:1056E000F08700000D0000006E6F64655F6E616DF5
:1056F00065203D20272573270D0000000AD7A33C15
:105700009A99993E6D203D206D7174742E436C6999
:10571000656E742827695F27202E2E206E6F6465C2
:105720002E63686970696428292C20313230290D74
:10573000000000002C8700086D3A6F6E28226D650E
:105740007373616765222C2066756E6374696F6E72
:1057500028636F6E6E2C20746F7069632C206461F7
:105760007461290D00000000696620746F70696320
:105770003A66696E6428225E2F636F6E74726F6C76
:105780002F2229207468656E0D0000006C6F636124
:105790006C20746F6B203D20746F7069633A6D618B
:1057A00074636828225E2F636F6E74726F6C2F2E85
:1057B0002B2F282E2B2922290D000000696620742A
:1057C0006F6B207468656E207072696E7428225C3D
:1057D000303335636F6E74726F6C2B222E2E746FA4
:1057E0006B2E2E222B222E2E646174612920656E71
:1057F000640D0000656E640D00000000656E642994
:105800000D0000006D3A7075626C69736828272F6F
:105810006576656E74732F272E2E6E6F64655F6ECE
:10582000616D652E2E272F6F6E6C696E65272C2794
:10583000272C312C30290D00CDCCCC3D6D3A707524
:10584000626C69736828272F6361706162696C6993
:1058500074792F272E2E6E6F64655F6E616D652ED5
:105860002E272F76616C756573272C272573272CBF
:10587000312C31290D0000006D3A7075626C69732E
:105880006828272F6361706162696C6974792F27BA
:105890002E2E6E6F64655F6E616D652E2E272F63F1
:1058A0006F6E74726F6C272C272573272C312C3167
:1058B000290D000030B5A1B0044600BF10A104F5C9
:1058C0009070FFF7BEF90FA101A8FAF743FD01ADF3
:1058D00008E0297804F59070FFF75AF90D4802F0B6
:1058E000E9F86D1C28780028F3D10B4802F0E2F8A3
:1058F00000BF4FF0804002F0DDF8012021B030BD44
:105900000D0000006E6F64652E72657374617274B1
:1059100028290D000AD7A33C9A99993E01460120F7
:10592000704700002DE9F04385B004460F469046CD
:105930001E46DDF83090002020706070A07084F862
:1059400063004FF41650002342463946009004F19C
:105950006400FFF7B3F8A0F164041A48016804F189
:105960006400FEF76CFE184821460CC801A802F03E
:1059700037F9002201A904F16400FEF775FE01ADBC
:10598000E86818B1E86881682846884700BF00BF0A
:105990002046FFF78FFF4A4631462046FFF7E0FAE0
:1059A00003E04FF07C5002F085F82046FFF76CFBD7
:1059B0000028F6D02046FFF7B1FF204605B0BDE82D
:1059C000F0830000EC000020688000087047BC38BD
:1059D000FEF7F3BDBC38FEF7F3BD7047002808BFE3
:1059E0007047FAF770BC000010B5FAF73DFC0400F0
:1059F00004BF02A000F0CEFB204610BD4F706572C0
:105A000061746F72206E65775B5D206F7574206FB7
:105A100066206D656D6F72790D0A0000490050EACD
:105A2000C12018BF04204A0D18BF40F0010040F209
:105A3000FF72B2EB515F08BF40F00200012808BFBF
:105A400005207047012070472DE9F0411C4617469C
:105A50000E00804607D0054602E02846B0473D4488
:105A60002046641EF9D24046BDE8F0810020FBF7D5
:105A700087BF000070B54FF4E1331B221A211C4888
:105A8000FFF732F804461B4A1B49FFF7DBFF1B4CAC
:105A90000C251C212046FBF72BF82946204600F058
:105AA00019FC00BF2D211648FEF750FD14211548A2
:105AB000FEF74CFD13211448FEF748FD0F21134853
:105AC000FEF744FD0C211248FEF740FD112111485C
:105AD000FEF7E5FF10211048FEF7E1FF16210F4801
